:020000040000FA
:100000000C945D000C9485000C9485000C94850084
:100010000C9485000C9485000C9485000C9485004C
:100020000C9485000C9485000C9485000C9485003C
:100030000C9485000C9485000C9485000C9485002C
:100040000C942F030C9485000C9485000C9485006F
:100050000C9485000C9485000C9485000C9485000C
:100060000C9485000C9485000000000024002700FB
:100070002A0000000000250028002B0004040404CE
:100080000404040402020202020203030303030342
:10009000010204081020408001020408102001021F
:1000A00004081020000000080002010000030407FB
:1000B00000000000000000006F0411241FBECFEFFD
:1000C000D8E0DEBFCDBF11E0A0E0B1E0EEE6F9E0A0
:1000D00002C005900D92A634B107D9F721E0A6E43D
:1000E000B1E001C01D92A836B207E1F710E0CDE5FE
:1000F000D0E004C02197FE010E94AF04CC35D107A7
:10010000C9F70E9479030C94B5040C940000AF92D7
:10011000BF92CF92DF92EF92FF920F931F93CF93F4
:10012000DF936C017B018B01040F151FEB015E0156
:10013000AE18BF08C017D10759F06991D601ED91EB
:10014000FC910190F081E02DC6010995892B79F78A
:10015000C501DF91CF911F910F91FF90EF90DF903C
:10016000CF90BF90AF90089590E0FC01EC55FF4F09
:100170002491FC01E057FF4F3491FC01E458FF4FFC
:10018000E491EE23C9F0222339F0233001F1A8F4E1
:10019000213019F1223029F1F0E0EE0FFF1FEE5867
:1001A000FF4FA591B4918FB7F894EC91611126C0DF
:1001B00030953E233C938FBF08952730A9F0283017
:1001C000C9F0243049F7809180008F7D03C0809171
:1001D00080008F7780938000DFCF84B58F7784BDD8
:1001E000DBCF84B58F7DFBCF8091B0008F7780937C
:1001F000B000D2CF8091B0008F7DF9CF3E2BDACF07
:10020000CF93DF9390E0FC01E057FF4F2491845897
:100210009F4FFC0184918823D1F090E0880F991FB3
:10022000FC01E859FF4FA591B491FC01EE58FF4F36
:10023000C591D49161110EC09FB7F8948C91E22FB3
:10024000E0958E238C932881E223E8839FBFDF9182
:10025000CF9108958FB7F894EC91E22BEC938FBF78
:10026000F6CF3FB7F89480914B0190914C01A0914B
:100270004D01B0914E0126B5A89B05C02F3F19F046
:100280000196A11DB11D3FBFBA2FA92F982F882716
:10029000BC01CD01620F711D811D911D42E0660FF1
:1002A000771F881F991F4A95D1F708958F929F92C3
:1002B000AF92BF92CF92DF92EF92FF924B015C011F
:1002C0000E9431016B017C010E9431016C197D0992
:1002D0008E099F09683E734081059105A8F321E0CE
:1002E000821A9108A108B10888EEC80E83E0D81ED2
:1002F000E11CF11C81149104A104B10429F7FF90C1
:10030000EF90DF90CF90BF90AF909F908F90089527
:10031000089590E080E008958F929F92AF92BF92EF
:100320000F931F93CF93DF93CDB7DEB7A1970FB68F
:10033000F894DEBF0FBECDBF19A2423008F44AE0E8
:100340008E010F5D1F4F842E912CB12CA12CA50185
:1003500094010E948D04E62FB901CA01EA3044F5E8
:10036000E05DD801EE938D01232B242B252B79F70B
:1003700090E080E0109769F0FD0101900020E9F71E
:100380003197AF014A1B5B0BBD0180E591E00E94F4
:100390008700A1960FB6F894DEBF0FBECDBFDF91E8
:1003A000CF911F910F91BF90AF909F908F90089524
:1003B000E95CD7CFFC0101900020E9F73197AF014C
:1003C000481B590BBC0180E591E00C948700CF934A
:1003D000DF93EC0160E08E810E94B40061E08E81C9
:1003E0000E94B40060E08E810E94B4008BE891E02E
:1003F0000197F1F7DF91CF910895CF92DF92EF92BD
:10040000FF920F931F93CF93DF936C017C0187E0E2
:10041000E80EF11CD0E0C0E0062F10E0B8010C2E71
:1004200002C0759567950A94E2F76170F7018191B2
:100430007F010E94B4002196C430D10579F7C6012E
:10044000DF91CF911F910F91FF90EF90DF90CF90B0
:100450000C94E701CF92DF92EF92FF920F931F93DC
:10046000CF93DF93EC01F62E642F8C810E94B400B1
:100470008D818F3F19F060E00E94B4000F2D10E0D5
:100480008F8584FF25C06E0187E0C80ED11CF12C3A
:10049000E12CB8010E2C02C0759567950A94E2F71D
:1004A0006170F60181916F010E94B400FFEFEF1AB5
:1004B000FF0A88E0E816F10461F7CE01DF91CF91E1
:1004C0001F910F91FF90EF90DF90CF900C94E70178
:1004D000B80184E0759567958A95E1F7CE010E9491
:1004E000FD016F2DCE01DF91CF911F910F91FF90F4
:1004F000EF90DF90CF900C94FD0140E0682F80E5F5
:1005000091E00C942A02CF93DF93823029F49091EA
:100510005F01986090935F01809363011092640182
:1005200080E48093650180E18093660180E580939B
:10053000670161E0809154010E94000180915501A2
:100540008F3F19F061E00E94000161E08091560147
:100550000E940001C0E5D1E09E012055314080910C
:100560005F0184FD0BC084E090E0219628173907D5
:1005700044F461E08E810E940001EECF88E090E0BB
:10058000F4CF8BE39DE00197F1F760E08091540197
:100590000E94B40060E0809156010E94B4008091F6
:1005A00055018F3F19F060E00E94B40080915F0117
:1005B00084FD39C063E080E591E00E94FD01CBE459
:1005C000D6E4CE010197F1F763E080E591E00E9467
:1005D000FD012197F1F763E080E591E00E94FD01C4
:1005E00083E592E00197F1F762E080E591E00E94F7
:1005F000FD0180915F0180620E947D0284E0809312
:1006000060018CE00E947D0281E00E947D028BE30C
:100610009FE10197F1F782E08093610186E0DF912D
:10062000CF910C947D0280620E947D028BE496E45F
:100630000197F1F780915F0180620E947D0283E55E
:1006400092E00197F1F780915F0180620E947D0244
:10065000D0CF41E00E942A0281E090E008951F92ED
:100660000F920FB60F9211242F933F938F939F9366
:10067000AF93BF938091470190914801A0914901A8
:10068000B0914A013091460123E0230F2D3758F5F0
:100690000196A11DB11D20934601809347019093BF
:1006A0004801A0934901B0934A0180914B01909178
:1006B0004C01A0914D01B0914E010196A11DB11DBB
:1006C00080934B0190934C01A0934D01B0934E0148
:1006D000BF91AF919F918F913F912F910F900FBE3E
:1006E0000F901F90189526E8230F0296A11DB11DAB
:1006F000D2CF789484B5826084BD84B5816084BD96
:1007000085B5826085BD85B5816085BD80916E00AF
:10071000816080936E0010928100809181008260E0
:10072000809381008091810081608093810080911D
:1007300080008160809380008091B100846080930C
:10074000B1008091B00081608093B00080917A0008
:10075000846080937A0080917A00826080937A002E
:1007600080917A00816080937A0080917A0080681D
:1007700080937A001092C10082E00E9483028EE092
:1007800091E00E94DA0160E08EE00E94000161E0E9
:100790008AE00E94000160E08AE00E94B40060EDFF
:1007A00077E080E090E00E94560181E00E947D02A7
:1007B0008BE39FE10197F1F710E4C0E0D0E001E0A6
:1007C00010937C0080917A00806480937A008091FD
:1007D0007A0086FDFCCF80917800E0907900FE2CB5
:1007E000E82E80910001909101018E159F0579F10D
:1007F000E1E0809163018111E0E0E195F0E0E05BF0
:10080000FE4F848980680E947D028CE191E00E9405
:10081000DA0147010F2C000CAA08BB084AE0C50109
:10082000B401B7FE0EC041E06DE280E591E00E94A8
:100830002A0266277727CB01681979098A099B095B
:100840004AE00E948C01F0920101E0920001809147
:100850004F019DE2E91691E0F90634F1811116C0CD
:10086000E0916301E230F0F4E150F0E0E05BFE4F34
:10087000848980680E947D0288E291E00E94DA010A
:1008800061E08AE00E94B40000934F0164EF71E0E0
:1008900080E090E00E945601209709F491CF0E94D9
:1008A00000008ECFE1E0E1CF882381F3E091630186
:1008B000E23098F4E150F0E0E05BFE4F848980681C
:1008C0000E947D0287E391E00E94DA0160E08AE005
:1008D0000E94B40010924F01D9CFE1E0ECCFE0E5E7
:1008E000F1E01382128286E091E0918380838CE0B4
:1008F00084838FEF85838BE0868385E0878384E024
:10090000808783E0818782E082871386148615863C
:100910001686178681E00C948302A1E21A2EAA1B88
:10092000BB1BFD010DC0AA1FBB1FEE1FFF1FA2179F
:10093000B307E407F50720F0A21BB30BE40BF50B9C
:10094000661F771F881F991F1A9469F76095709525
:10095000809590959B01AC01BD01CF010895EE0FEC
:10096000FF1F0590F491E02D0994F894FFCFFFFF4D
:100970000000000029038700890188014761732076
:10098000446574656374696F6E00476173205661D6
:100990006C75653A20004761732044657465637423
:1009A00065642120004E6F204761732020202020A5
:0409B00020202000E3
:107E0000112484B714BE81FFF0D085E080938100F7
:107E100082E08093C00088E18093C10086E0809377
:107E2000C20080E18093C4008EE0C9D0259A86E02C
:107E300020E33CEF91E0309385002093840096BBD3
:107E4000B09BFECF1D9AA8958150A9F7CC24DD24C4
:107E500088248394B5E0AB2EA1E19A2EF3E0BF2EE7
:107E6000A2D0813461F49FD0082FAFD0023811F036
:107E7000013811F484E001C083E08DD089C08234E0
:107E800011F484E103C0853419F485E0A6D080C0E4
:107E9000853579F488D0E82EFF2485D0082F10E0AE
:107EA000102F00270E291F29000F111F8ED06801E7
:107EB0006FC0863521F484E090D080E0DECF843638
:107EC00009F040C070D06FD0082F6DD080E0C81688
:107ED00080E7D80618F4F601B7BEE895C0E0D1E017
:107EE00062D089930C17E1F7F0E0CF16F0E7DF06D8
:107EF00018F0F601B7BEE89568D007B600FCFDCFD4
:107F0000A601A0E0B1E02C9130E011968C91119780
:107F100090E0982F8827822B932B1296FA010C0160
:107F200087BEE89511244E5F5F4FF1E0A038BF0790
:107F300051F7F601A7BEE89507B600FCFDCF97BE46
:107F4000E89526C08437B1F42ED02DD0F82E2BD052
:107F50003CD0F601EF2C8F010F5F1F4F84911BD097
:107F6000EA94F801C1F70894C11CD11CFA94CF0C13
:107F7000D11C0EC0853739F428D08EE10CD085E9AC
:107F80000AD08FE07ACF813511F488E018D01DD067
:107F900080E101D065CF982F8091C00085FFFCCF94
:107FA0009093C60008958091C00087FFFCCF809118
:107FB000C00084FD01C0A8958091C6000895E0E648
:107FC000F0E098E1908380830895EDDF803219F02E
:107FD00088E0F5DFFFCF84E1DECF1F93182FE3DFCA
:107FE0001150E9F7F2DF1F91089580E0E8DFEE27F6
:047FF000FF270994CA
:027FFE00040479
:00000001FF
