:020000040000FA
:100000000C9462000C948A000C948A000C948A0070
:100010000C948A000C948A000C948A000C948A0038
:100020000C948A000C948A000C948A000C948A0028
:100030000C948A000C948A000C948A000C948A0018
:100040000C94FE020C948A000C948A000C948A0092
:100050000C948A000C948A000C948A000C948A00F8
:100060000C948A000C948A000000000024002700F1
:100070002A0000000000250028002B0000000000DE
:1000800023002600290004040404040404040202DA
:100090000202020203030303030301020408102007
:1000A0004080010204081020010204081020000012
:1000B0000008000201000003040700000000000027
:1000C0000000490411241FBECFEFD8E0DEBFCDBF32
:1000D00011E0A0E0B1E0E0EEF8E002C005900D9282
:1000E000AA39B107D9F721E0AAE9B1E001C01D9210
:1000F000AB3BB207E1F710E0C2E6D0E004C02197C5
:10010000FE010E946804C136D107C9F70E94480366
:100110000C946E040C940000AF92BF92CF92DF92C9
:10012000EF92FF920F931F93CF93DF936C017B01AC
:100130008B01040F151FEB015E01AE18BF08C0173D
:10014000D10759F06991D601ED91FC910190F081B0
:10015000E02DC6010995892B79F7C501DF91CF9173
:100160001F910F91FF90EF90DF90CF90BF90AF90D5
:100170000895833081F028F4813099F08230A9F01D
:1001800008958730A9F08830C9F08430B1F48091A7
:1001900080008F7D03C0809180008F7780938000E6
:1001A000089584B58F7784BD089584B58F7DFBCF86
:1001B0008091B0008F778093B00008958091B00057
:1001C0008F7DF9CF1F93CF93DF93282F30E0F90174
:1001D000E255FF4F8491F901E656FF4FD491F901A2
:1001E000EA57FF4FC491CC23A9F0162F81110E942A
:1001F000B900EC2FF0E0EE0FFF1FEE58FF4FA59176
:10020000B4918FB7F894EC91111108C0D095DE230A
:10021000DC938FBFDF91CF911F910895DE2BF8CF34
:10022000CF93DF9390E0FC01E656FF4F24918A576D
:100230009F4FFC0184918823D1F090E0880F991F93
:10024000FC01E859FF4FA591B491FC01EE58FF4F16
:10025000C591D49161110EC09FB7F8948C91E22F93
:10026000E0958E238C932881E223E8839FBFDF9162
:10027000CF9108958FB7F894EC91E22BEC938FBF58
:10028000F6CF3FB7F89480919F019091A001A09183
:10029000A101B091A20126B5A89B05C02F3F19F07E
:1002A0000196A11DB11D3FBFBA2FA92F982F8827F6
:1002B000BC01CD01620F711D811D911D42E0660FD1
:1002C000771F881F991F4A95D1F708958F929F92A3
:1002D000AF92BF92CF92DF92EF92FF924B015C01FF
:1002E0000E9441016B017C010E9441016C197D0952
:1002F0008E099F09683E734081059105A8F321E0AE
:10030000821A9108A108B10888EEC80E83E0D81EB1
:10031000E11CF11C81149104A104B10429F7FF90A0
:10032000EF90DF90CF90BF90AF909F908F90089507
:10033000089590E080E00895FC0101900020E9F725
:100340003197AF01481B590BBC0183EA91E00C9433
:100350008C00CF93DF93EC0160E08E810E94E2007D
:1003600061E08E810E94E20060E08E810E94E200E6
:100370008BE891E00197F1F7DF91CF910895CF924B
:10038000DF92EF92FF920F931F93CF93DF936C0155
:100390007C0187E0E80EF11CD0E0C0E0062F10E001
:1003A000B8010C2E02C0759567950A94E2F761704A
:1003B000F70181917F010E94E2002196C430D105AE
:1003C00079F7C601DF91CF911F910F91FF90EF90C8
:1003D000DF90CF900C94A901CF92DF92EF92FF9221
:1003E0000F931F93CF93DF93EC01F62E642F8C8134
:1003F0000E94E2008D818F3F19F060E00E94E200D0
:100400000F2D10E08F8584FF25C06E0187E0C80E98
:10041000D11CF12CE12CB8010E2C02C0759567950A
:100420000A94E2F76170F60181916F010E94E20087
:10043000FFEFEF1AFF0A88E0E816F10461F7CE013A
:10044000DF91CF911F910F91FF90EF90DF90CF90B0
:100450000C94A901B80184E0759567958A95E1F738
:10046000CE010E94BF016F2DCE01DF91CF911F9170
:100470000F91FF90EF90DF90CF900C94BF0140E080
:10048000682F83EA91E00C94EC01CF93DF93613005
:1004900029F09091B20198609093B2016093B601F7
:1004A0001092B70190E49093B8018093B901805CF9
:1004B0008093BA0161E08091A7010E9410018091B0
:1004C000A8018F3F19F061E00E94100161E0809166
:1004D000A9010E941001C3EAD1E09E01235A3140D4
:1004E0008091B20184FD0BC084E090E02196281732
:1004F000390744F461E08E810E941001EECF88E05C
:1005000090E0F4CF8BE39DE00197F1F760E08091FC
:10051000A7010E94E20060E08091A9010E94E20030
:100520008091A8018F3F19F060E00E94E200809165
:10053000B20184FD39C063E083EA91E00E94BF010B
:10054000CBE4D6E4CE010197F1F763E083EA91E0D2
:100550000E94BF012197F1F763E083EA91E00E94D6
:10056000BF0183E592E00197F1F762E083EA91E051
:100570000E94BF018091B20180620E943F0284E02C
:100580008093B3018CE00E943F0281E00E943F0211
:100590008BE39FE10197F1F782E08093B40186E05D
:1005A000DF91CF910C943F0280620E943F028BE466
:1005B00096E40197F1F78091B20180620E943F02B8
:1005C00083E592E00197F1F78091B20180620E9489
:1005D0003F02D0CF9091B601891710F08FEF890FAD
:1005E000E82FF0E0ED55FE4F848980680C943F02BF
:1005F00041E00E94EC0181E090E008951F920F928B
:100600000FB60F9211242F933F938F939F93AF9325
:10061000BF9380919B0190919C01A0919D01B0910D
:100620009E0130919A0123E0230F2D3758F5019652
:10063000A11DB11D20939A0180939B0190939C0171
:10064000A0939D01B0939E0180919F019091A00184
:10065000A091A101B091A2010196A11DB11D8093AD
:100660009F019093A001A093A101B093A201BF911B
:10067000AF919F918F913F912F910F900FBE0F904F
:100680001F90189526E8230F0296A11DB11DD2CF09
:10069000789484B5826084BD84B5816084BD85B55D
:1006A000826085BD85B5816085BD80916E00816069
:1006B00080936E001092810080918100826080930F
:1006C0008100809181008160809381008091800011
:1006D0008160809380008091B10084608093B1003C
:1006E0008091B00081608093B00080917A00846036
:1006F00080937A0080917A00826080937A00809162
:100700007A00816080937A0080917A00806880937B
:100710007A001092C10060E082E00E94100161E066
:1007200087E00E94100161E086E00E94100161E014
:1007300085E00E94100160E087E00E94E20060E036
:1007400086E00E94E20060E085E00E94E20064E052
:1007500084E10E94450280E00E94EA028CE091E080
:100760000E949C0181E00E94EA0281E291E00E94E5
:100770009C0160ED77E080E090E00E94660181E0FE
:100780000E943F028BE39FE10197F1F7C0EBD0E0BD
:100790000CE910E098E8E92E90E0F92E20E0C22E56
:1007A00020E0D22EFE018491F801A490F701B490CC
:1007B000BB2009F456C081110E94B900EB2DF0E076
:1007C000EE0FFF1FE458FF4FA591B4918C91A82222
:1007D00009F447C061E087E00E94E20061E086E042
:1007E0000E94E20061E085E00E94E20082E00E9457
:1007F000EA0286E391E00E949C0164E670E080E0FA
:1008000090E00E94660182E00E94EA028AE491E0A0
:100810000E949C0164E670E080E090E00E94660126
:1008200082E00E94EA028EE591E00E949C0164E66B
:1008300070E080E090E00E94660182E00E94EA029F
:1008400082E791E00E949C0164E670E080E090E025
:100850000E946601C114D10409F4A4CF0E940000D3
:10086000A1CF60E087E00E94E20060E086E00E94A5
:10087000E20060E085E00E94E20082E00E94EA027D
:1008800086E891E00E949C0164EF71E080E090E0D6
:10089000DFCFE3EAF1E01382128284E091E09183FA
:1008A00080838DE084838FEF85838CE086838BE06B
:1008B00087838AE0808789E0818788E08287138642
:1008C000148615861686178661E080E10C94450231
:1008D000EE0FFF1F0590F491E02D0994F894FFCFDF
:1008E00000000000F8028C00990198012020544873
:1008F0004520425249474854204C494748542020FB
:10090000002047415320444554454354494F4E200D
:1009100053595320200020202047617320446574E0
:1009200065637465642020202000202020476173C7
:100930002044657465637465642E202020002020A7
:10094000204761732044657465637465642E2E20AE
:10095000200020202047617320446574656374651E
:10096000642E2E2E2000202020202020204E6F20BC
:0A09700047617320202020202000A2
:107E0000112484B714BE81FFF0D085E080938100F7
:107E100082E08093C00088E18093C10086E0809377
:107E2000C20080E18093C4008EE0C9D0259A86E02C
:107E300020E33CEF91E0309385002093840096BBD3
:107E4000B09BFECF1D9AA8958150A9F7CC24DD24C4
:107E500088248394B5E0AB2EA1E19A2EF3E0BF2EE7
:107E6000A2D0813461F49FD0082FAFD0023811F036
:107E7000013811F484E001C083E08DD089C08234E0
:107E800011F484E103C0853419F485E0A6D080C0E4
:107E9000853579F488D0E82EFF2485D0082F10E0AE
:107EA000102F00270E291F29000F111F8ED06801E7
:107EB0006FC0863521F484E090D080E0DECF843638
:107EC00009F040C070D06FD0082F6DD080E0C81688
:107ED00080E7D80618F4F601B7BEE895C0E0D1E017
:107EE00062D089930C17E1F7F0E0CF16F0E7DF06D8
:107EF00018F0F601B7BEE89568D007B600FCFDCFD4
:107F0000A601A0E0B1E02C9130E011968C91119780
:107F100090E0982F8827822B932B1296FA010C0160
:107F200087BEE89511244E5F5F4FF1E0A038BF0790
:107F300051F7F601A7BEE89507B600FCFDCF97BE46
:107F4000E89526C08437B1F42ED02DD0F82E2BD052
:107F50003CD0F601EF2C8F010F5F1F4F84911BD097
:107F6000EA94F801C1F70894C11CD11CFA94CF0C13
:107F7000D11C0EC0853739F428D08EE10CD085E9AC
:107F80000AD08FE07ACF813511F488E018D01DD067
:107F900080E101D065CF982F8091C00085FFFCCF94
:107FA0009093C60008958091C00087FFFCCF809118
:107FB000C00084FD01C0A8958091C6000895E0E648
:107FC000F0E098E1908380830895EDDF803219F02E
:107FD00088E0F5DFFFCF84E1DECF1F93182FE3DFCA
:107FE0001150E9F7F2DF1F91089580E0E8DFEE27F6
:047FF000FF270994CA
:027FFE00040479
:00000001FF
